{
  "contractName": "HelloWorld",
  "abi": [
    {
      "constant": true,
      "inputs": [],
      "name": "word",
      "outputs": [
        {
          "name": "",
          "type": "string"
        }
      ],
      "payable": false,
      "stateMutability": "view",
      "type": "function"
    },
    {
      "anonymous": false,
      "inputs": [
        {
          "indexed": false,
          "name": "newWord",
          "type": "string"
        }
      ],
      "name": "WordChanged",
      "type": "event"
    },
    {
      "constant": false,
      "inputs": [
        {
          "name": "newWord",
          "type": "string"
        }
      ],
      "name": "Change_Word",
      "outputs": [],
      "payable": false,
      "stateMutability": "nonpayable",
      "type": "function"
    },
    {
      "constant": true,
      "inputs": [],
      "name": "read_word",
      "outputs": [
        {
          "name": "",
          "type": "string"
        }
      ],
      "payable": false,
      "stateMutability": "view",
      "type": "function"
    }
  ],
  "bytecode": "0x60806040526040805190810160405280600b81526020017f48656c6c6f20576f726c640000000000000000000000000000000000000000008152506000908051906020019061004f929190610062565b5034801561005c57600080fd5b50610107565b828054600181600116156101000203166002900490600052602060002090601f016020900481019282601f106100a357805160ff19168380011785556100d1565b828001600101855582156100d1579182015b828111156100d05782518255916020019190600101906100b5565b5b5090506100de91906100e2565b5090565b61010491905b808211156101005760008160009055506001016100e8565b5090565b90565b610505806101166000396000f3fe608060405260043610610051576000357c01000000000000000000000000000000000000000000000000000000009004806308ef8642146100565780632f64d386146100e65780633542728414610176575b600080fd5b34801561006257600080fd5b5061006b61023e565b6040518080602001828103825283818151815260200191508051906020019080838360005b838110156100ab578082015181840152602081019050610090565b50505050905090810190601f1680156100d85780820380516001836020036101000a031916815260200191505b509250505060405180910390f35b3480156100f257600080fd5b506100fb6102e0565b6040518080602001828103825283818151815260200191508051906020019080838360005b8381101561013b578082015181840152602081019050610120565b50505050905090810190601f1680156101685780820380516001836020036101000a031916815260200191505b509250505060405180910390f35b34801561018257600080fd5b5061023c6004803603602081101561019957600080fd5b81019080803590602001906401000000008111156101b657600080fd5b8201836020820111156101c857600080fd5b803590602001918460018302840111640100000000831117156101ea57600080fd5b91908080601f016020809104026020016040519081016040528093929190818152602001838380828437600081840152601f19601f82011690508083019250505050505050919291929050505061037e565b005b606060008054600181600116156101000203166002900480601f0160208091040260200160405190810160405280929190818152602001828054600181600116156101000203166002900480156102d65780601f106102ab576101008083540402835291602001916102d6565b820191906000526020600020905b8154815290600101906020018083116102b957829003601f168201915b5050505050905090565b60008054600181600116156101000203166002900480601f0160208091040260200160405190810160405280929190818152602001828054600181600116156101000203166002900480156103765780601f1061034b57610100808354040283529160200191610376565b820191906000526020600020905b81548152906001019060200180831161035957829003601f168201915b505050505081565b8060009080519060200190610394929190610434565b507f8c0ede53491cc194de6d9fe9cd70ea8bb6d96372d3b47d972a5344a4cd164270816040518080602001828103825283818151815260200191508051906020019080838360005b838110156103f75780820151818401526020810190506103dc565b50505050905090810190601f1680156104245780820380516001836020036101000a031916815260200191505b509250505060405180910390a150565b828054600181600116156101000203166002900490600052602060002090601f016020900481019282601f1061047557805160ff19168380011785556104a3565b828001600101855582156104a3579182015b828111156104a2578251825591602001919060010190610487565b5b5090506104b091906104b4565b5090565b6104d691905b808211156104d25760008160009055506001016104ba565b5090565b9056fea165627a7a7230582049a554e9e5d3856dec53e7e47f7419fa28d1d9ef9e9b493007776f2f3f9c675a0029",
  "source": "// SPDX-License-Identifier: MIT\n// from: https://docs.openzeppelin.com/learn/developing-smart-contracts#setting-up-a-solidity-project\npragma solidity >=0.4.22 <0.8.0;\n\ncontract HelloWorld {\n    string public word = \"Hello World\";\n\n    // Emitted when the stored value changes\n    event WordChanged(string newWord);\n\n    // Stores a new value in the contract\n    function Change_Word(string memory newWord) public {\n        word = newWord;\n        emit WordChanged(newWord);\n    }\n\n    // Reads the last stored value\n    function read_word() public view returns (string memory) {\n        return word;\n    }\n}\n",
  "sourcePath": "/home/kyle/myfiles/eth/test/contracts/HelloWorld.sol",
  "compiler": {
    "name": "solc",
    "version": "0.5.1+commit.c8a2cb62.Linux.g++"
  },
  "schemaVersion": "3.3.2",
  "updatedAt": "2021-02-16T04:36:45.513Z",
  "networkType": "ethereum",
  "devdoc": {
    "methods": {}
  },
  "userdoc": {
    "methods": {}
  }
}